:020000040800F2
:100000007807002091010008E31700088F16000808
:10001000E1170008650500084D1A000800000000FF
:10002000000000000000000000000000E7170008CA
:10003000AD06000800000000E5170008E9170008F9
:10004000AB010008AB010008AB010008AB010008E0
:10005000AB010008AB010008AB010008AB010008D0
:10006000AB010008AB010008AB010008AB010008C0
:10007000AB010008AB010008AB010008AB010008B0
:10008000AB010008AB010008AB010008AB010008A0
:10009000AB010008AB010008AB010008AB01000890
:1000A000AB010008AB010008AB010008AB01000880
:1000B000AB010008AB01000800000000AB01000824
:1000C000AB0100080000000000000000AB010008C8
:1000D00000000000AB010008AB01000800000000B8
:1000E000AB010008AB010008AB01000800F002F80A
:1000F00000F03FF80AA090E8000C82448344AAF183
:100100000107DA4501D100F034F8AFF2090EBAE880
:100110000F0013F0010F18BFFB1A43F0010318473B
:100120008C240000AC240000103A24BF78C878C1A9
:10013000FAD8520724BF30C830C144BF04680C60ED
:10014000704700000023002400250026103A28BF35
:1001500078C1FBD8520728BF30C148BF0B60704739
:10016000642900F07D80002070471FB51FBD10B5C9
:1001700010BD00F052F91146FFF7F7FF01F078FCCF
:1001800000F070F903B4FFF7F2FF03BC00F078F958
:100190000948804709480047FEE7FEE7FEE7FEE71B
:1001A000FEE7FEE7FEE7FEE7FEE7FEE70448054957
:1001B000054A064B7047000065180008ED0000086E
:1001C00078010020780700207803002078030020C1
:1001D0000FB41CB5074B06AA7B44694600900598EE
:1001E00000F003F90020694600F012F91CBC5DF82C
:1001F00014FB0000350200002DE9F0410E460446D4
:10020000002020622046E168884730B3252805D0C9
:10021000D4E901219047206A401CF2E7E1682046BA
:1002200000278847050018D0A5F14100192802D8F9
:1002300020354FF400673246294620462760FFF7F5
:100240008FFF40B1012804D0F61D26F007060836BE
:10025000D8E7361DD6E72846DAE7206ABDE8F08100
:100260002DE9F0410646002410687529314616A58F
:1002700010D0AFF30080002802DA404213A507E057
:1002800031688A0701D512A502E0490704D511A5F6
:10029000012401E0AFF3008000210A2206F12407C7
:1002A00009E0B0FBF2FCB0FBF2F302FB1C003030C3
:1002B00078541846491C0028F3D123462A46304674
:1002C000BDE8F04100F032B8000000002D00000051
:1002D0002B000000200000004FF0000200B5134684
:1002E00094469646203922BFA0E80C50A0E80C5056
:1002F000B1F12001BFF4F7AF090728BFA0E80C5007
:1003000048BF0CC05DF804EB890028BF40F8042BFF
:1003100008BF704748BF20F8022B11F0804F18BF6C
:1003200000F8012B70477047704770472DE9F04780
:100330000D4699469246044600F124080168880655
:1003400004D5E06921F01001216000E00120A842FD
:1003500001DD471B00E00027A1697A1902EB0900C3
:10036000081AA0612078C00602D42046AFF30080AE
:10037000002608E0D4E901211AF806009047206A17
:10038000401C761C20624E45F4DB2078C0060AD55E
:100390002046AFF3008006E0D4E9012130209047E9
:1003A000206A401C2062381EA7F10107F4DC07E038
:1003B000D4E9012118F805009047206A401C20620A
:1003C000281EA5F10105F3DC2046AFF3008020785C
:1003D000000602D50220BDE8F0870120FBE70000FF
:1003E00001694A1C02610878704700B58FB0CDE9F9
:1003F00001310021059105497944CDE903101146E9
:100400006846FFF7F9FE0FB000BD0000E5FFFFFFF3
:100410000A6802F8010B0A607047754600F02CF874
:10042000AE4605006946534620F00700854618B0E1
:1004300020B5FFF7BBFEBDE820404FF000064FF0AF
:1004400000074FF000084FF0000B21F00701AC4609
:10045000ACE8C009ACE8C009ACE8C009ACE8C00928
:100460008D46704710B50446AFF300802046BDE8C6
:100470001040FFF787BE00000048704714010020BD
:1004800001491820ABBEFEE72600020070470000BD
:1004900070B5044600688168C943C90717D18168EF
:1004A00021F00101816000F09BFB05460AE000BFDE
:1004B00000F096FB401B022804D920688068C043E6
:1004C000C00706D020688068C043C007F0D0002075
:1004D00070BDA06A40F01000A062E06A40F0010028
:1004E000E062012070BD0000F8B5002604460096C9
:1004F00000688168C943C9072DD0816841F00101B6
:100500008160164816490068B0FBF1F000E0401E1B
:1005100000900028FBD100F063FB054616E000BF09
:1005200000F05EFB401B022810D920688068C043A1
:10053000C0070BD0A06A40F01000A062E06A40F053
:100540000100E06284F824600120F8BD2068806822
:10055000C043C007E4D10020F8BD000034000020F3
:1005600040420F00FEE700002DE9F04700254FF064
:10057000010A4FF40079DFF88480214C00F030FB51
:10058000606100F02DFB4F46A06102E000F028FB07
:10059000A0613946404600F019FB20B9D4E90501B5
:1005A000801C8842F2D8282001F060FBB946394609
:1005B0004746404600F00AFB0028C5F107010AFA49
:1005C00001F019D03043C6B200F00AFBC4F81400A1
:1005D00000F006FBA0614946384600F0F7FA20B16A
:1005E000D4E90501801C8842F2D86D1CEDB2082DBB
:1005F000C4D33046BDE8F0878643E5E7000C0140F0
:10060000000000202DE9FF41002502204FF4007476
:100610004FF00108CDE90250224ECDE900482F46A7
:100620006946304600F0F2F900222146304600F0DB
:10063000D2FA142000F0D8F901222146304600F009
:10064000CAFA1E2001F012FBCDE901786946304656
:1006500000F0DCF9282001F009FB2146304600F0CB
:10066000B5FA40B9502001F001FB2146304600F0B8
:10067000ADFA00B1012500F0B3FA0B4FC7F8140032
:1006800000F0AEFAB8612146304600F09FFA20B182
:10069000D7E90501801C8842F2D804B02846BDE89D
:1006A000F0810000000C01400000002070470000B5
:1006B000F8B50024009490F824202546012A12D091
:1006C000012280F824204A681F23072A0DD20668D9
:1006D000776B521E02EB820293409F430B6893405C
:1006E0001F43776319E00220F8BD06680D2A0AD27D
:1006F000376BD21F02EB820293409F430B689340FB
:100700001F43376309E0F76A0D3A02EB8202934018
:100710009F430B6893401F43F7620A6807230668EC
:100720000A2A0AD3F7680A3A02EB420293409F432F
:100730008B6893401F43F76008E0376902EB420281
:1007400093409F438B6893401F4337610A68102A88
:1007500001D0112A20D1124B02689A4217D1936816
:100760001B0219D4936843F40003936009681029AD
:1007700012D10C490C4A0968B1FBF2F101EB81017D
:10078000490000E0491E00910029FBD104E0816A84
:1007900041F020018162012480F824502046F8BDF8
:1007A000002401403400002040420F000068C06C6B
:1007B000704700002DE9F0414FF0000704003D466E
:1007C0007ED0A06A002628B9E66284F8246020461C
:1007D00000F07EF82046FFF75BFEA16AC90600D450
:1007E00020B1A06A40F01000A06269E0A16A21F483
:1007F000885141F00201A1626268E169237B0A43EA
:1008000047EA43010A43A1684FF48077B94209D00F
:10081000012907D05FF0000194F814C0BCF1010F6A
:1008200002D00AE03946F7E7F3B1A36A43F02003A8
:10083000A362E36A43F00103E3622368D3F804C0D0
:100840002CF4694C4CEA010CC3F804C021688B6895
:10085000DFF870C003EA0C0313438B60A168B94250
:100860000BD0012909D00CE0DFF85CC0A3690CEBC8
:1008700043330B4343F40061DFE7218A0D05A5F5FF
:1008800080152168CB6A23F470032B43CB62216867
:1008900089680E4B1940914208D1E662A16A21F0A5
:1008A000020141F00101A162BDE8F081A06A20F0DF
:1008B000020040F01000A062E06A40F00100E06237
:1008C0000120F1E7FDF7E1FF00E0FFFFFE0E1FFF53
:1008D00000B585B00021009101910291039100685B
:1008E0000E49884218D10E48816941F40071816136
:1008F000816901F400710491816941F00401816111
:100900008069694600F004000490012000900320F3
:100910000190044800F07AF805B000BD00240140C1
:10092000001002400008014070B5044690F8240011
:1009300001280DD0012084F824002046FFF7D4FDC3
:1009400002004FF0000005D084F82400104670BD6E
:10095000022070BDA16A40F20123994341F48071E5
:10096000A1621F4D23681F49AB4218D10E6816F4CF
:10097000702F14D0A66A46F48016A6620E6876051B
:1009800005D5A66A26F4005646F48056A662A66AE5
:10099000F6040AD5E66A26F00606E66206E0A66ACE
:1009A00026F48016A6625E68E9E7E06284F8240017
:1009B0006FF00200186020688368C3F34243072B7E
:1009C00005D1A84208D1096811F4702F04D08168BC
:1009D00041F480118160B9E7816841F4A001F9E731
:1009E000002801400424014070B5044600F0F8F8E6
:1009F0000546601C02D004480078044400F0F0F87A
:100A0000401BA042FAD370BD280000202DE9F84F0A
:100A1000DFF89C91002409F1040A0AF1040B234633
:100A20000F270BF1040EBBE00125A5402A40AA4286
:100A300076D1DFF880C14E68A6EB0C0866452BD056
:100A40000DDC032E34D005DC36B3012E19D0022E76
:100A50002FD11BE0112E16D0122E2AD119E0B8F595
:100A6000881F19D006DCB8F5803F15D0B8F5801F77
:100A70001FD111E0B8F5001F0ED0B8F5041F18D132
:100A80000AE0CB6815E0CB681B1D12E0CB68083389
:100A90000FE0CB680C330CE08B682BB1012B4FF0CF
:100AA000080303D0456104E0042302E0056100E08F
:100AB0000023FF2A01D8064601E000F104064FEAB0
:100AC000840501D9A5F12005D6F8008007FA05FCB8
:100AD00028EA0C0803FA05F548EA0508C6F800807C
:100AE0004D68ED005BD5344DAE6946F00106AE6150
:100AF000AD6924F0030605F0010500952F4D06EBC6
:100B0000050CDCF80850A607360F07FA06F825EAA8
:100B10000805DFF8AC80404503D14FF0000810E035
:100B20003DE0DFF8A080404502D14FF0010808E029
:100B3000DFF89480404502D14FF0020801E04FF009
:100B4000030808FA06F848EA0508CCF808804D685A
:100B5000D9F80060ED034D4601D5164300E09643F9
:100B60002E604D68DAF80060AD03554601D5164396
:100B700000E096432E604D68DBF80060ED025D46B4
:100B800001D5164300E096432E604D68DEF8006004
:100B9000AD02754601D5164300E096432E60641CF5
:100BA0000A6832FA04F57FF43FAFBDE8F88F000021
:100BB000000401400000111000100240000001403C
:100BC00000080140000C014000100140806808400E
:100BD00000D0012070470AB1016170470904FBE7AA
:100BE00001488068704700002800002002488168A2
:100BF000027811448160704728000020074810B532
:100C0000016841F010010160032000F067F80F2037
:100C100000F006F800F024F8002010BD002002408B
:100C200070B50D4D04464FF47A712878B1FBF0F0A1
:100C30000A490968B1FBF0F000F054FB48B9102CE8
:100C400007D200222146501E00F028F800206C60D8
:100C500070BD012070BD000028000020340000207D
:100C60000C4808B5816941F001018161816901F099
:100C700001010091C16941F08051C161C06900F07A
:100C8000805000900448416821F0E06141F08061AB
:100C9000416008BD0010024000000140F0B40E4B5E
:100CA0001B680C46C3F30223C3F10705042D00D9CA
:100CB0000425191D072901D2002300E0DB1E0126AF
:100CC00006FA05F1491E214099409E40761E1640C5
:100CD0003143F0BC00F0BBBE0CED00E0064900F073
:100CE000070208684FF6FF03184040EA0220034A53
:100CF00010430860704700000CED00E00000FA05AA
:100D00002DE9F84305460078354CC00754D0E0691A
:100D10000026C00008D4E06940F08050E061E0693E
:100D2000012600F0805000902E480168C90512D4B9
:100D30000168804641F480710160FFF751FF07466A
:100D400005E000BFFFF74CFFC01B642823D8D8F88C
:100D50000000C005F6D5206A10F4407021D0A988A3
:100D600001F4407181421CD0206A1F49012220F405
:100D700040700A6000220A602062C00711D0FFF7AD
:100D80002FFF074641F2883808E000BFFFF728FF31
:100D9000C11B414502D90320BDE8F883206A8007C2
:100DA000F4D5206A696820F44070084320621EB1BF
:100DB000E06920F08050E0612878800705D5606800
:100DC000A96820F44040084360602878C00605D533
:100DD0006068E96820F48000084360600020DBE779
:100DE0000010024000700040400442422DE9F047EC
:100DF0000F46050061D0434E306800F00700B8424E
:100E000009D2306820F0070038433060306800F0C5
:100E10000700B84251D128683B4C810712D54007E2
:100E200003D5606840F4E06060602878000703D56F
:100E3000606840F4605060606068A96820F0F0006D
:100E4000084360602878C00728D06868012810D05F
:100E50002168022810D0890700292EDA616821F064
:100E6000030101436160FFF7BBFE804641F2883910
:100E70000DE021688903EFE78901EDE7FFF7B0FE98
:100E8000A0EB0801494502D90320BDE8F08760685E
:100E9000696800F00C00B0EB810FEFD1306800F012
:100EA0000700B8420BD9306820F0070038433060A3
:100EB000306800F00700B84201D00120E5E728784B
:100EC000400705D56068E96820F4E0600843606089
:100ED0002878000706D56068296920F4605040EA48
:100EE000C100606000F038F86168084AC1F303117E
:100EF000515CC8400649086006480068FFF790FE4C
:100F00000020C2E7002002400010024092250008A5
:100F1000340000202C00002004480549006849687E
:100F2000044AC1F30221515CC840704734000020DC
:100F300000100240A22500080448054900684968DD
:100F4000044AC1F3C221515CC840704734000020FC
:100F500000100240A225000812A185B00FC98DE83B
:100F60000F0014A0144A006804905168134801F05F
:100F70000C03042B10D0082B0ED1C1F38343C903FB
:100F80001DF803000AD5516804AAC1F34041515C21
:100F90000A4A5043B0FBF1F005B070470849484396
:100FA000FAE7000002030405060708090A0B0C0D06
:100FB0000E0F1010010200000010024000127A0013
:100FC00000093D002DE9F84F040070D02078C04D95
:100FD000C00749D06868C0F38100012807D068685D
:100FE000C0F38100022809D16868C00306D52868CB
:100FF000800339D560680028E7D035E06068B0F537
:10100000803F0BD010B1B0F5A02F11D0286820F48C
:1010100080302860286820F4802002E0286840F4AE
:1010200080302860606890B1FFF7DAFD06460AE07C
:10103000286840F480202860F0E700BFFFF7D0FD6B
:10104000801B642873D828688003F7D50CE0FFF76D
:10105000C7FD064605E000BFFFF7C2FD801B642800
:10106000F0D828688003F7D420789A4E80074FF094
:1010700001094FF0000839D5686810F00C0F07D04F
:101080006868C0F38100022809D16868C00306D4EB
:101090002868800714D52069012808D110E020694C
:1010A000B0B1C6F80090FFF79BFD074605E00AE1E6
:1010B000FFF796FDC01B0228C4D828688007F7D523
:1010C0002868616920F0F80040EAC10028600DE05E
:1010D000C6F80080FFF784FD074604E0FFF780FDB7
:1010E000C01B022823D828688007F7D4207800077F
:1010F0002CD57948A169D9B1C0F80090FFF770FDEF
:10110000074604E0FFF76CFDC01B02280FD8686A91
:101110008007F7D571484FF4FA510068B0FBF1F041
:10112000009000BF0098411E0091FAD20EE080E0CE
:10113000C0F80080FFF754FD074604E0FFF750FDBC
:10114000C01B022875D8686A8007F7D4207840074A
:1011500060D5E8690027C00008D4E86940F08050F5
:10116000E861E869012700F0805000905C48016860
:10117000C90513D40168834641F480710160FFF70B
:101180002FFD824606E000BFFFF72AFDA0EB0A0014
:1011900064284ED8DBF80000C005F5D5E0680128CA
:1011A0000AD008B1052813D0286A20F0010028626F
:1011B000286A20F0040002E0286A40F0010028625A
:1011C000E06841F2883B98B1FFF70AFD82460BE0E8
:1011D000286A40F004002862EEE700BFFFF700FD38
:1011E000A0EB0A0159455AD8286A8007F6D50CE0C9
:1011F000FFF7F6FC824605E0FFF7F2FCA0EB0A01E0
:1012000059454CD8286A8007F6D41FB1E86920F008
:101210008050E861E06988B36968C1F381010229FF
:1012200044D00228C6F8608004D0FFF7D9FC0446F9
:1012300038E034E0FFF7D4FC074604E0FFF7D0FCC9
:10124000C01B02282BD828688001F7D4206AB0F58B
:10125000803F05D16868A16820F4003008436860C9
:10126000D4E908010843696821F4741108436860EF
:10127000C6F86090FFF7B4FC044606E025E000BF26
:10128000FFF7AEFC001B022809D828688001F7D5BB
:101290001BE000BFFFF7A4FC001B022802D90320BB
:1012A000BDE8F88F28688001F4D40EE00128F7D05B
:1012B0006868226A00F48031914204D1616A00F4C6
:1012C0007010884201D00120EAE70020E8E7000022
:1012D00000100240000042428004424234000020DC
:1012E0000070004010B5401EB0F1807F01D3012096
:1012F00010BD4FF0E02460610F21601700F0A7FBE4
:101300000020A06107202061002010BD70B590F87A
:101310003C20012A23D0012480F83C40022280F89E
:101320003D2003685A689D6822F070060A683243BF
:101330005A600C4B02689A4205D0B2F1804F02D03D
:10134000094B9A4204D1496825F080031943916002
:1013500080F83D40002180F83C10084670BD022016
:1013600070BD0000002C01400004004010B50400D6
:1013700003D094F83D0010B107E0012010BD00201B
:1013800084F83C00204600F01FF8022084F83D005D
:10139000211D206800F068FA012084F8460084F8D6
:1013A0003E0084F83F0084F8400084F8410084F84F
:1013B000420084F8430084F8440084F8450084F82F
:1013C0003D00002010BD000008B5006806498842B5
:1013D00008D10648816941F400618161806900F4A7
:1013E0000060009008BD0000002C01400010024089
:1013F00090F83D10012901D001207047022180F8AA
:101400003D1000680949884205D0B0F1804F02D0F4
:101410000749884204D1816801F00701062903D0F9
:10142000016841F00101016000207047002C01407B
:101430000004004070B5044690F83C00012817D025
:10144000012584F83C50022084F83D002068826821
:1014500022F0770222F47F4282600868502830D060
:101460000DDC20284DD005DC98B310283BD148E096
:10147000022070BD302844D0402834D139E06028A3
:1014800028D0702806D0B0F5805F2CD0B0F5005F72
:1014900029D10AE0CB68D1E90121206800F012FAD5
:1014A0002068816841F0770109E0CB68D1E901212A
:1014B000206800F007FA2068816841F4804181606B
:1014C00011E0CA684968206800F00EFA50212068CF
:1014D00007E016E0CA684968206800F016FA602143
:1014E000206800F0F9F984F83D50002084F83C00B1
:1014F00070BDCA684968206800F0F6F9402120688C
:10150000EFE7226801461046EBE770B5040004D00F
:1015100094F83D00002510B106E0012070BD84F86C
:101520003C50204600F022F8242084F83D0020683A
:10153000C16821F40051C160204600F0F9F920682B
:10154000016921F4904101612068416921F02A017B
:1015500041612068C16841F40051C16025642020C8
:1015600084F83D0084F83E00002070BD30B585B0A1
:101570000024009401940294039400681449884262
:1015800024D11448816941F480418161816901F469
:1015900080410491816941F00401816180690E4DAF
:1015A00000F0040004904FF40070009002200190BD
:1015B0000320039069462846FFF728FA2815CDE94D
:1015C0000004694628460294FFF720FA05B030BDB2
:1015D0000038014000100240000801402DE9F843A6
:1015E000044690F83D001F4616460D4620284CD173
:1015F000C5B1BEB194F83C00012846D0012084F862
:101600003C004FF00008C4F84080212084F83D00E1
:10161000FFF7E6FAA6848146E684A068B0F5805F0D
:1016200003D004E00120BDE8F883206928B12E46EC
:101630005FF0000584F83C800EE00026FAE7802188
:10164000204600F0D1F9A0B9AEB116F8010B21681F
:101650004860E08C401EE084E08C4B464FF0000276
:1016600000970028EBD14FF04001204600F0BCF974
:1016700030B10320D7E735F8020BC0F30800E6E7E6
:10168000202084F83D000020CDE70220CBE7FEE7D4
:101690003EB5002410480094019402940D498460E2
:1016A000016001250573047505614FF460214460F4
:1016B000C161FFF77FF808B172B6FEE7CDE90045DA
:1016C000694605480294FEF7F3FF002801D072B680
:1016D000FEE73EBD00240140380000202DE9F04324
:1016E00085B00024214800940194029403948169F8
:1016F00041F020018161816901F02001049181693B
:1017000041F004018161816901F004010491816962
:1017100041F0080181618069DFF8548000F0080021
:101720000490002292214046FFF755FADFF84490DA
:101730004FF40077002239464846FFF74CFA9220D2
:1017400001250226CDE90005CDE90246694640465D
:10175000FFF75CF900970396CDE9015469464846C6
:10176000FFF754F905B0BDE8F08300000010024017
:1017700000080140000C014010B586B00024174855
:101780000094019402940394049413490594016015
:101790004721C0E901144FF6FF71C0E90314446109
:1017A0008461FFF7E3FD08B172B6FEE74FF48050A5
:1017B000009069460948FFF73DFE08B172B6FEE7A2
:1017C000049404A905480594FFF7A0FD002801D062
:1017D00072B6FEE706B010BD002C01406800002084
:1017E000FEE7FEE770477047FFF700BA30B593B0E9
:1017F00028216846FEF770FD14210AA8FEF76CFD4B
:10180000002501200F9510951195010412958DE882
:10181000230004904FF4E010CDE90810022407944F
:101820006846FFF7CFFB08B172B6FEE70AA90F20A2
:1018300081E831004FF48060CDE90D0502210AA84E
:10184000FFF7D4FA08B172B6FEE74FF440401190AA
:101850000F940FA8FFF754FA002801D072B6FEE7E4
:1018600013B030BD7047000070B50268134B144CC4
:101870004FF08046984203D0B04201D0A04203D13D
:1018800022F070054A682A43984203D0B04201D042
:10189000A04203D122F44074CA6822434C6922F06A
:1018A0008002224302608A68C2620A6882629842A9
:1018B00001D1096901630121416170BD002C014022
:1018C0000004004010B5846842EA032224F47F44F7
:1018D0000A432243826010BD826822F070020A43EC
:1018E00042F007018160704710B5036A046A24F072
:1018F00001040462846924F0F00444EA021423F031
:101900000A020A438461026210BD10B5036A23F023
:10191000100303628369046A23F4704343EA0232CA
:1019200024F0A00343EA01118261016210BD0000AE
:1019300070B5044600680169E26821F44051114322
:1019400001612169A0680843616908432168CA6888
:1019500041F20C639A430243CA6020684169A2695C
:1019600021F44071114341611E492068884202D12F
:10197000FFF7E2FA01E0FFF7CFFA00EBC00101EB5D
:101980000012606864218000B2FBF0F3B3FBF1F356
:101990006FF018067343B2FBF0F5B2FBF0F605EBFF
:1019A0008305322303EB0515B5FBF1F5B6FBF1F624
:1019B00005F0F00505EB0615B2FBF0F6B2FBF0F012
:1019C000B0FBF1F06FF01802504306EB800003EB20
:1019D0000010B0FBF1F0216800F00F00284488608F
:1019E00070BD0000003801402DE9F04198461746CF
:1019F0000E460446069D1DE0681C1BD02DB1FFF766
:101A0000EFF8A0EB0800A84214D92068C16821F4BF
:101A1000D071C1602068416921F00101416120203D
:101A200084F83D0084F83E00002084F83C00032048
:101A3000BDE8F0812068006836EA000004D000208C
:101A4000B842D9D00020F3E70120F9E7FEE7090703
:101A5000090E002804DB00F1E02080F80014704734
:101A600000F00F0000F1E02080F8141D7047000026
:101A7000FFF7C4F8FFF7BAFEFFF730FEFFF77CFE72
:101A8000674866490C2201604FF4165141600021FD
:101A90008160C160C0E904128161C161FFF735FD59
:101AA00008B172B6FEE7FFF7F3FD5D484838FFF76F
:101AB0009FFC5B487838FEF737FF5B4CDFF864A18A
:101AC00004F120064FF4FA77FEF79CFD00286DD054
:101AD000FEF74AFD2070FEF747FD6070FEF744FDFB
:101AE000A070FEF741FDE070FEF73EFD2071227808
:101AF0006178A5788846914611444A19E1780A44EC
:101B000082422CD1084600F047FA0022474B00F0F1
:101B1000EBF800F0B7F88346284600F0E5FB59469D
:101B200000F0A2FA4249A06000F0F2FB414900F047
:101B3000FDFA4FF0844100F097FAE060404600F073
:101B40002BFA0022394B00F0CFF800F09BF88046CA
:101B5000484600F0C9FB414600F086FA20610F2D8F
:101B600007D20122802155465046FFF734F8002263
:101B70000AE0192D4FF000024FF080015546504603
:101B800008D2FFF728F8012210212846FFF723F892
:101B9000002207E0FFF71FF8002210212846FFF778
:101BA0001AF8012202212846FFF715F86420FEF7F3
:101BB0001BFF1B487838FEF7F9FD306000F0ECF9A8
:101BC0001D4A1E4B00F090F800F05CF8E06100F058
:101BD0006FFB024612481AA14430FEF7F9FA104989
:101BE0003B461E2244310E48FFF7F8FC6420FEF706
:101BF000FBFE206900F05CFB0246094816A1443058
:101C0000FEF7E6FA06493B461E2244310448FFF738
:101C1000E5FC6420FEF7E8FE56E7000000380140CE
:101C2000B000002000080140000000200000244017
:101C3000000010410000A040AE47E17A146E204041
:101C400054656D70657261747572653A2025642003
:101C50002043200D0A00000048756D69646974799D
:101C60003A202564205248200D0A00000449002231
:101C70000B685A6209684A6A8242FCD370470000C6
:101C80006800002021F00042A2F16052B2F5801FEE
:101C900001F0004328BFD2F17F6C0BD95FEA001C32
:101CA00043EAC20242EB507018BF704728BF20F0D1
:101CB00001007047B2F5801FBCBF184670474FEA5D
:101CC000410C1CF5001F02D2084600F0E8BB70B5BD
:101CD00000F075F900000089FFF7F6BF4FF00040F3
:101CE000A0F58000704700002DE9C04130B4DFF856
:101CF000A0C23CEA111418BF3CEA131400F0EC80B7
:101D000081EA03051CEA111444EAD57418BF1CEAE1
:101D1000131500F0C780A4EB05044FF0004545EA19
:101D2000C12145EAC32341EA505143EA525304F129
:101D30007F74994204F500344FEAC0204FEAC22272
:101D400008BF904200F09C804FEA13650FF24016E6
:101D5000765D4FEA134506FB05F7C7F1807706FB72
:101D600007F74FEAD737A7FB03687642C8F58038F4
:101D7000A7FB06CE38BFA8F1010807FB08E64FF025
:101D8000000EA6FB028CE6FB03CEDCF1000CCEF1CC
:101D9000004E38BFAEF1010EA6FB0C584FF0000705
:101DA0004FF00005E6FB0E87A1FB08C6A0FB07CE9F
:101DB00016EB0E0645F10005E1FB076515F1E04E57
:101DC0007EBFA4F580345FEA46066D4116F18007B8
:101DD00045F100054FEA17274FEA066647EA05670F
:101DE000A6F1DE46B6F1805F4FEA15251FD93846C9
:101DF00024F0010C05EBC471BCF1FE6F01EB0C117A
:101E000002D8F0BCBDE8008124425CBF01F5801E11
:101E10009EEAC47F02D4F0BCBDE80081244238D4DD
:101E2000F0BCA1F1C041BDE8004100F016B94FEA95
:101E3000D22242EA43524FEAD323A7FB02864FEA5B
:101E4000D02040EA415007FB03661EEA0E0F4FEA1E
:101E5000D12105FB026658BFA6EB0056B6EB005633
:101E60004FEA520E4EEAC37E18EB0E0E56EB530E9F
:101E7000BDD518EB02085E417F1C55F10005B6E7A1
:101E80004FF480154FF000074FF000064FF00008A8
:101E9000ADE7F0BC4FF0000001F1C04101F000419E
:101EA000BDE8008111EA0C1F0CEA131500D00CE00C
:101EB00013EA0C1F00F025804FF00000F0BC81EA0F
:101EC000030101F00041BDE80081F0BCBDE8004124
:101ED00081EA030100F0C1B8F0BCBDE8004170B573
:101EE00000F06DF8097EFC3E00F007B881EA0301BE
:101EF0004FF0000001F00041704781EA030100F05B
:101F0000ACB8F0BCBDE800414FF00000214970477B
:101F1000FFFDFBF9F7F5F4F2F0EEEDEBE9E8E6E4AE
:101F2000E3E1E0DEDDDBDAD8D7D5D4D3D1D0CFCD35
:101F3000CCCBCAC8C7C6C5C4C2C1C0BFBEBDBCBB6E
:101F4000BAB9B8B7B6B5B4B3B2B1B0AFAEADACAB69
:101F5000AAA9A8A8A7A6A5A4A3A3A2A1A09F9F9E43
:101F60009D9C9C9B9A9999989797969595949393F5
:101F7000929191908F8F8E8E8D8C8C8B8B8A89898C
:101F8000888887878685858484838382828181800F
:101F90000000FF070000F87FB0FA80F310FA03F1A9
:101FA0000AD0C3F11D0303F580634FEA41504FEAA5
:101FB000035202EBD12170474FF0000070470EF141
:101FC000020E2EF0030E5EF8046B364205D4012A91
:101FD00043EB030515F5001F12D8012841EB010C56
:101FE0001CF5001F0CD80ED14FEAD17C15F5001F4F
:101FF0000CEB4C0C0CF1020C08BF4CEBD37C04E056
:102000004FF0080C01E04FEAD37C0CEB4C0526FAAC
:1020100005F606F00706B6F1040C06D20EEB860CA8
:10202000BDE870404CF0010C6047DFE80CF0090B94
:1020300002024FF000414FF00000A1F5002170BDF9
:1020400019461046012851EB010418BFD4F50014BD
:1020500084BF002001F0004170BD0808A0F5001108
:102060004FEA31017047000090EA010F48BF81F04C
:10207000004100F12082421A3CBF801A89184FEAC1
:10208000D0524FF07F4C1CEA410FA2EBD15318BF46
:102090009CEA026F00F03B804FF0004C4CEA0020BD
:1020A0004CEA012121FA03FC10EB0C0C1ED202F1C8
:1020B000FF325FEA1C2040EBC25038BF70471CF073
:1020C0007F0F4FEA400C18BFBCF17F4F38BF7047FD
:1020D000C3F12003994008BF20F00100BCF17F4FFD
:1020E00038BF7047A0F1C04000F0D9B94FEA3C00BA
:1020F000000A40EBC25028BF1CF0FF0F4FEA400C13
:10210000E6D018BFBCF17F4F38BF7047EAE79CEAC2
:10211000026F05D010EA5C0F08BF00F00040704766
:1021200010B500F076F900BF64FBBE3E4FF47F0CA3
:102130001CEAD0121EBF1CEAD11392EA0C0F93EADC
:102140000C0F00F0858090EA010F48BF42F48072C6
:1021500040F4000C41F400002CF07F4120F07F405F
:1021600000B58142A2EB03020FF2081CACEB504E0B
:10217000C0F100009EF800E04FEA4E0E00FB0EFC9E
:1021800038BF49004FEA2C1C02F5FA020CFB0EF393
:102190004FEACE1E4FEA112C4FEAC1210EEB635ECF
:1021A00042EB22420EFB0CFC4FEA1C5300FB0311D6
:1021B0004FEA112C4FEA01310EFB0CFC4FEADC4CCC
:1021C00000FB0C11C14228BF09184CEB03335DF82A
:1021D00004EB10EB410143EBC250B2F57C0F38BF6A
:1021E000704729D512F0F00F1CBF00F1C04000F07D
:1021F00000407047008182838485868788898B8C24
:102200008D8E8F919293959697999A9C9D9FA0A25F
:10221000A3A5A7A8AAACAEB0B2B3B5B7B9BCBEC0AF
:10222000C2C5C7C9CCCED1D4D7D9DCDFE2E6E9EC50
:10223000F0F3F7FAFE0000004FEA400C0CF1807C4E
:10224000BCF17E4F28BF7047B0F1C04000F027B905
:1022500090EA010F0CEAD11348BF42F48072624544
:1022600038BF634507D213F47F0F16D080EA010010
:1022700000F00040704710B500F0CBF8097EFC3E3E
:1022800000F005B880EA010000F00040704780EAE5
:10229000010000F0004000F002B912F47F0F04BF0B
:1022A0000248704780EA010000F0F9B80000C07FE2
:1022B00041000B0ED3F19E0208D950F400034FEAFF
:1022C000032323FA02F048BF4042704710B500F0E4
:1022D000A0F800BF49922480002070476FF00042B0
:1022E00082EA200070470000B0FA80F310FA03F28F
:1022F000C3F19D030AD0D90501EB1220530638BF64
:10230000704700F1010008BF20F001007047000095
:102310004FF47F0C1CEAD0121EBF1CEAD11392EAC4
:102320000C0F93EA0C0F00F0478090EA010F48BFB2
:1023300042F480724FF0004C4CEA00204CEA01213C
:1023400002EB0302A0FB0113A2F50002002918BF53
:1023500043F001035B0028BF4FEA330342EB224204
:102360005FEA132C4CEBC2502EBFBCEB436FB2F5AF
:102370007C0F70474FEA036CBCF1004F08BF20F0A0
:102380000100B2F57C0F38BF70470BD582F0FF0219
:1023900012F5803FC8BF704700F1C040D8BF00F0C1
:1023A0000040704700F5000C5FEA4C0C48BF7047D6
:1023B000B0F1C04000F073B890EA010F0CEAD113FD
:1023C00048BF42F48072624538BF634504D280EA58
:1023D000010000F00040704710B500F01AF800BF8F
:1023E0008900013E00F007B800F009B85FEA410C2F
:1023F0005FEA1C6C08D080EA010000F050B85FEA88
:10240000400C5FEA1C6CF6D14FF00040A0F5800054
:1024100070470EF1020E2EF0030E5EF8044B2442BC
:1024200004D44FEA4102B2F17F4F11D84FEA400382
:10243000B3F17F4F0CD80ED14FEAD07CB2F17F4F71
:102440000CEB4C0C0CF1020C08BF4CEBD17C04E003
:102450004FF0080C01E04FEAD17C0CEB4C0324FA5E
:1024600003F404F00704B4F1040C06D20EEB840C60
:10247000BDE810404CF0010C6047DFE80CF00708A5
:1024800002024FF00040A0F5800010BD0846420057
:1024900018BFD2F1807288BF00F0004010BDFF214C
:1024A00041EAD050C005704790EA010F48BF81F063
:1024B00000413FF5E0AD421A04D882F00042A0EBA3
:1024C000020011444FEAD0524FF07F4C1CEA410FFA
:1024D000A2EBD15318BF9CEA026F4AD04FF0004CD8
:1024E0004CEA00204CEA012121FA03FCB0EB0C0C71
:1024F0000FD412F0FE0F36D05FEA4C001DD500124B
:1025000040EBC25038BF70471CF03F0F18BF7047F8
:102510000BE0A2F101025FEA1C2040EBC25038BF81
:1025200070471CF07F0F18BF7047C3F1200399401C
:1025300014BF401E20F00100704780084FEA1223AC
:1025400008BF7047B0FA80FCA2EB0C02CCF1280C5B
:1025500060FA0CF093EA122F04BF00EBC2507047F0
:102560004FEAC3707047130A5FEADC1008BF704778
:10257000F6E79CEA026F04D010EA5C0F08BF002067
:10258000704710B5FFF745FF40DFF63E81F0004091
:10259000704700000000000000000102030406076D
:1025A000080900000000010203040000CC25000817
:1025B0000000002038000000280100080426000860
:1025C000380000204007000044010008000000001F
:1025D00000000000000000000000000000000000FB
:1025E00000000000000000000000000000000000EB
:1025F00000000000010000001000000000000000CA
:042600000024F400BE
:04000005080000ED02
:00000001FF
